:020000040000FA
:100000000C9435010C9466010C9466010C94660105
:100010000C9466010C9466010C9466010C946601C4
:100020000C9466010C9466010C9466010C946601B4
:100030000C9466010C9466010C9466010C946601A4
:100040000C9466010C9466010C9466010C94660194
:100050000C9466010C9466010C9466010C943706AE
:100060000C9466010C9466010C9466010C94660174
:100070000C9466010C9466010C9466010C94660164
:100080000C9466010C9466010C9466010C94660154
:100090000C9466010C9466010C9466010C94660144
:1000A0000C9466010C9466010C9466010C94660134
:1000B0000C9466010C9466010C9466010C94660124
:1000C0000C9466010C9466010C9466010C94660114
:1000D0000C9466010C9466010C9466010C94660104
:1000E0000C9466010C9481020C9429030C94B802C0
:1000F0000C94E9020C9446020C94FB010C946F02E0
:100100000C9487020C94030A0C946B020C948904DF
:100110000C9485030C9484030C9454020C945002A8
:100120000C9486020C944C020C9461020C947302A1
:100130000C9458020C9465020C945B020C948B0294
:100140000C9479020C947D02000021002400270009
:100150002A002D00300033000101000004010701D6
:100160000A0100002200250028002B002E0031008B
:10017000340002010000050108010B01000020000D
:100180002300260029002C002F003200000100006F
:10019000030106010901050505050705080808080A
:1001A000020202020A0A080804040404010101010F
:1001B000010101010303030303030303040707070A
:1001C0000C0C0C0C0C0C0C0C0202020206060606AF
:1001D000060606060B0B0B0B0B0B0B0B010210207C
:1001E000200808102040102040800201020108046D
:1001F0000201010204081020408080402010080401
:100200000201800402018040201008040201080459
:10021000020101020408102040800102040810209D
:10022000408000000A0B02090C0D0E0807030401B0
:1002300000000000000000000000000000000000BE
:10024000000000000000000000000000000012118B
:10025000100000000000000000000000000000008E
:100260000000000000000000030A11241FBECFEFB1
:10027000D1E2DEBFCDBF00E00CBF13E0A0E0B2E0F2
:10028000E8E3FAE100E00BBF02C007900D92A8304E
:10029000B107D9F723E0A8E0B3E001C01D92A63B67
:1002A000B207E1F711E0C5E3D1E000E006C0219715
:1002B0000109802FFE010E94120DC433D10780E096
:1002C0000807A9F70E9481060C941A0D0C940000EF
:1002D00096E0899FD0011124A95EBC4F90967C9333
:1002E0006E935F9791E091969C939197E091840330
:1002F000F091850390918303992339F0309751F061
:10030000811108C0809133031994309719F05C96DD
:100310008C91FACF0895CF92DF92EF92FF920F93D4
:100320001F9396E0899FF0011124E95EFC4F11A212
:10033000278D30A12130310551F178F0223031057F
:1003400009F451C02330310509F452C01F910F91B7
:10035000FF90EF90DF90CF9008956623B9F361E0AE
:1003600070E00E9468012FB7F89480911303909178
:100370001403A0911503B09116032FBF80936F0350
:1003800090937003A0937103B0937203DFCF9FB774
:10039000F894C0901303D0901403E0901503F090EC
:1003A00016039FBF00916F0310917003209171039A
:1003B00030917203C01AD10AE20AF30A0091810354
:1003C0001091820330E020E00C151D052E053F053D
:1003D00050F462E070E01F910F91FF90EF90DF907A
:1003E000CF900C9468016111B1CF63E070E0F3CF5E
:1003F00070E060E0F0CFAF92BF92CF92DF92EF92C9
:10040000FF920F931F93CF93DF936C017B018B01BE
:10041000040F151FEB015E01AE18BF08C017D1070E
:1004200059F06991D601ED91FC910190F081E02D98
:10043000C6011995892B79F7C501DF91CF911F91DD
:100440000F91FF90EF90DF90CF90BF90AF90089505
:100450008150823108F05AC0E82FF0E08827EC5C28
:10046000FD4F8F4F0C94120D5402580246024C025D
:10047000500286025B02610265026B026F02730228
:1004800079027D028602810287028B0280918000C0
:100490008F77809380000895809180008F7DF9CFC1
:1004A00080918000877FF5CF84B58F7784BD0895D4
:1004B00084B58F7DFBCF8091B0008F778093B000A3
:1004C00008958091B0008F7DF9CF809190008F7753
:1004D000809390000895809190008F7DF9CF809156
:1004E0009000877FF5CF8091A0008F778093A00048
:1004F00008958091A0008F7DF9CF8091A000877F23
:10050000F5CF809120018F7780932001089580910D
:1005100020018F7DF9CF80912001877FF5CFCF9388
:10052000DF93282F30E0F901EE5DFD4F8491F90152
:10053000E452FE4FD491F901EA56FE4FC491CC2308
:10054000A1F081110E942802EC2FF0E0EE0FFF1FB6
:10055000E458FE4FA591B491EC91ED2381E090E039
:1005600009F480E0DF91CF91089580E090E0FACF28
:10057000862F0C948F021F93CF93DF93282F30E0A8
:10058000F901EE5DFD4F8491F901E452FE4FD491E3
:10059000F901EA56FE4FC491CC23A9F0162F811120
:1005A0000E942802EC2FF0E0EE0FFF1FEE59FE4FE5
:1005B000A591B4918FB7F894EC91111108C0D09522
:1005C000DE23DC938FBFDF91CF911F910895DE2B47
:1005D000F8CF862F642F0C94BB02CF93DF9390E06B
:1005E000FC01E452FE4F24918A569E4FFC018491F7
:1005F0008823C9F090E0880F991FFC01E85BFE4F4B
:10060000A591B491FC01EE59FE4FC591D4916111B1
:100610000DC09FB7F8948C91209582238C9388818C
:10062000282328839FBFDF91CF910895623051F432
:100630009FB7F8943C91822F809583238C93E88117
:100640002E2BEFCF8FB7F894EC912E2B2C938FBFDE
:10065000EACF862F642F0C94ED023FB7F894809177
:10066000090390910A03A0910B03B0910C0326B5E6
:10067000A89B05C02F3F19F00196A11DB11D3FBFDA
:10068000BA2FA92F982F8827BC01CD01620F711DA9
:10069000811D911D42E0660F771F881F991F4A95A3
:1006A000D1F708958F929F92AF92BF92CF92DF922F
:1006B000EF92FF924B015C010E942D036B017C01C4
:1006C0000E942D036C197D098E099F09683E7340B5
:1006D00081059105A8F321E0821A9108A108B108CB
:1006E00088EEC80E83E0D81EE11CF11C8114910431
:1006F000A104B10429F7FF90EF90DF90CF90BF9055
:10070000AF909F908F900895089590E080E00895B5
:10071000FB0101900020E9F73197AF01461B570B11
:100720000C94FB018F929F92AF92BF92EF92FF9237
:100730000F931F93CF93DF93CDB7DEB7A1970FB67B
:10074000F894DEBF0FBECDBF7C01FA01CB0119A228
:10075000223008F42AE08E010F5D1F4F822E912C6B
:10076000B12CA12CBF01A50194010E94F00CF9014C
:10077000CA016A300CF5605DD8016E938D01232BA0
:10078000242B252B79F790E080E0109721F0BD0114
:10079000C7010E948803A1960FB6F894DEBF0FBE72
:1007A000CDBFDF91CF911F910F91FF90EF90BF9040
:1007B000AF909F908F900895695CDECFCF93DF93C9
:1007C000BC018EE993E00E948803EC016DE272E0C7
:1007D0008EE993E00E9488038C0F9D1FDF91CF91DB
:1007E00008950C948803CF93DF93EC0160E08E8131
:1007F0000E94BB0261E08E810E94BB0260E08E819C
:100800000E94BB028BE891E00197F1F7DF91CF9155
:100810000895CF92DF92EF92FF920F931F93CF93A1
:10082000DF936C017C0187E0E80EF11CD0E0C0E0B2
:10083000062F10E0B8010C2E02C0759567950A943A
:10084000E2F76170F70181917F010E94BB0221965E
:10085000C430D10579F7C601DF91CF911F910F9177
:10086000FF90EF90DF90CF900C94F303CF92DF9244
:10087000EF92FF920F931F93CF93DF93EC01F62E2D
:10088000642F8C810E94BB028D818F3F19F060E044
:100890000E94BB020F2D10E08F8584FF25C06E01E2
:1008A00087E0C80ED11CF12CE12CB8010E2C02C03F
:1008B000759567950A94E2F76170F60181916F0171
:1008C0000E94BB02FFEFEF1AFF0A88E0E816F1046E
:1008D00061F7CE01DF91CF911F910F91FF90EF90C3
:1008E000DF90CF900C94F303B80184E07595679581
:1008F0008A95E1F7CE010E9409046F2DCE01DF91A8
:10090000CF911F910F91FF90EF90DF90CF900C94BB
:10091000090441E00E94360481E090E008954F927E
:100920005F926F927F928F929F92AF92BF92CF927F
:10093000DF92EF92FF920F931F93CF936B017C0195
:10094000742EAC019B010E94EB0C60E372E08111FC
:1009500026C046015701E894B7F82FEF3FEF4FE765
:100960005FE7C501B4010E94EB0C81110CC02FEFB1
:100970003FEF4FE75FE7C501B4010E94210B64E33D
:1009800072E0181664F02FEF3FEF4FE75FE4C70106
:10099000B6010E94790C1816ACF468E372E086E8A0
:1009A00093E0CF911F910F91FF90EF90DF90CF9048
:1009B000BF90AF909F908F907F906F905F904F907F
:1009C0000C9488032FEF3FEF4FE75FECC701B601B0
:1009D0000E94210B87FDE1CF20E030E0A901C70193
:1009E000B6010E94210B10E000E087FF0CC041E03F
:1009F0006DE286E893E00E943604F7FAF094F7F887
:100A0000F09401E010E0C0E060E070E080E09FE37F
:100A10007C1641F020E030E040E251E40E94260BD9
:100A2000CF5FF6CFA70196010E94B50A4B015C018A
:100A30000E94980B2B013C012AE0BC01A20186E830
:100A400093E00E949203080F191FCC23D9F1C30130
:100A5000B2010E94C70B9B01AC01C501B4010E9409
:100A6000B40A4B015C0141E06EE286E893E00E942B
:100A700036040F5F1F4FC15028F120E030E040E204
:100A800051E4C501B4010E947E0C2B013C010E947F
:100A9000980B4B01B12CA12C2AE0B501A40186E8EA
:100AA00093E00E949203080F191FC501B4010E9430
:100AB000C70B9B01AC01C301B2010E94B40A4B01F8
:100AC0005C01D9CFC801CF911F910F91FF90EF909A
:100AD000DF90CF90BF90AF909F908F907F906F905E
:100AE0005F904F90089540E00C943604FC012389F8
:100AF000421710F04FEF420FFC01E40FF11D248963
:100B0000620F60680C94730540E060E08EE993E04A
:100B10000E9476058CE392E00E94DE0341E060E0F3
:100B20008EE993E00E94760580E592E00C94DE0366
:100B300061E00E9473058BE39FE10197F1F708954F
:100B40000F931F93CF93DF93EC01623019F48F85DD
:100B500088608F876B8B1C8A80E48D8B80E18E8B05
:100B600080E58F8B61E08C810E94ED028D818F3F4B
:100B700019F061E00E94ED0261E08E810E94ED02B9
:100B80008E0198012C1B3D0B8F8584FD0DC084E0E8
:100B900090E00F5F1F4F281739074CF461E0F80110
:100BA00086810E94ED02EDCF88E090E0F2CF8BE3EA
:100BB0009DE00197F1F760E08C810E94BB0260E04C
:100BC0008E810E94BB028D818F3F19F060E00E94F0
:100BD000BB026F8564FD34C063E0CE010E9409044E
:100BE0000BE416E4C8010197F1F763E0CE010E941F
:100BF0000904C8010197F1F763E0CE010E940904DE
:100C000083E592E00197F1F762E0CE010E940904CA
:100C10006F856062CE010E94730584E0888B6CE072
:100C2000CE010E947305CE010E94980582E0898B57
:100C300066E0CE01DF91CF911F910F910C94730567
:100C40006062CE010E9473058BE496E40197F1F790
:100C50006F856062CE010E94730583E592E0019783
:100C6000F1F76F856062CE010E947305D1CF1F92AC
:100C70000F920FB60F9211242F933F938F939F9350
:100C8000AF93BF938091130390911403A091150328
:100C9000B09116033091080323E0230F2D3758F548
:100CA0000196A11DB11D2093080380931303909317
:100CB0001403A0931503B093160380910903909138
:100CC0000A03A0910B03B0910C030196A11DB11D65
:100CD0008093090390930A03A0930B03B0930C0332
:100CE000BF91AF919F918F913F912F910F900FBE28
:100CF0000F901F90189526E8230F0296A11DB11D95
:100D0000D2CF789484B5826084BD84B5816084BD7F
:100D100085B5826085BD85B5816085BD80916E0099
:100D2000816080936E0010928100809181008260CA
:100D30008093810080918100816080938100809107
:100D400080008160809380008091B10084608093F6
:100D5000B1008091B00081608093B00080919100DB
:100D600082608093910080919100816080939100D6
:100D7000809190008160809390008091A1008260BA
:100D80008093A1008091A10081608093A100809157
:100D9000A00081608093A0008091210182608093F7
:100DA00021018091210181608093210180912001A6
:100DB00081608093200180917A00846080937A0022
:100DC00080917A00826080937A0080917A008160BD
:100DD00080937A0080917A00806880937A001092E4
:100DE000C10062E08EE993E00E94A00562E086E81F
:100DF00093E00E94A00562E08AE30E94ED0262E0B7
:100E000087E00E94ED0260E086E30E94ED0261E06F
:100E100088E10E94ED0261E089E10E94ED0261E05B
:100E200087E10E94ED0261E086E10E94ED020E94EE
:100E300084056CE271E080E090E00E9452038EE94C
:100E400093E00E949805812C912C5401839440E0FA
:100E5000642E40E0742E51E0509383038FB7F894D2
:100E60004091130350911403609115037091160380
:100E70008FBF8091730390917403A0917503B0911B
:100E80007603481B590B6A0B7B0B80917F03909173
:100E90008003B0E0A0E084179507A607B70708F025
:100EA0000CC1C0E080917D03C81760F4E091790324
:100EB000F0917A03EC0FF11D62E080810E94ED0257
:100EC000CF5FF0CF512C80917E03581608F05FC0A1
:100ED000052D10E0E0917B03F0917C03E00FF11F02
:100EE00061E080810E94ED02E0917B03F0917C0340
:100EF000E00FF11F60E080810E94BB02D501C401B8
:100F0000052C04C0880F991FAA1FBB1F0A94D2F793
:100F10006C017C01E094F094412C80917D03481693
:100F2000F8F4C42DD0E0E0917903F0917A03EC0F4E
:100F3000FD1F80810E948F022496CC0FDD1FC95EA9
:100F4000DC4F892B41F4888199818C299D299983D3
:100F500088834394E2CF888199818E219F21F7CFA6
:100F6000E0917B03F0917C03E00FF11F61E0808151
:100F70000E94BB0280917B0390917C03080F191F94
:100F800060E0F80180810E94ED0253949CCF07E15C
:100F900013E0E8018F8D98A1892B31F41C8E8FEF1F
:100FA0009FEF9E8F8D8F19A2269693E0C335D907A8
:100FB00089F7F12C80917D03F81608F053C0E12CDD
:100FC000CF2CD12CCC0CDD1CF601E15EFC4F6F0167
:100FD00020917E03E21608F043C0F6016081718122
:100FE0000E2C02C0769567950A94E2F7F29E900166
:100FF00011242E0D311DE7E1F3E080E0458D568D83
:101000002417350709F4FDC18F5F36968A30B1F792
:1010100060FF24C0E7E1F3E090E080E0448D4111FF
:1010200018C0E0917703F0917803E20FF31F40813D
:1010300056E0589FF001599FF00D1124E95EFC4FD6
:10104000448F368F258F10A2178E61E00E948B018E
:1010500005C0019636968A30910501F7E394B8CF22
:10106000F394A8CF80E0F80191A19111892F0A5F34
:101070001F4FC017D107B9F79FB7F89440911303DA
:101080005091140360911503709116039FBF409314
:1010900073035093740360937503709376038823EE
:1010A00061F080913803882341F08091360390915C
:1010B0003703D0903303019719F010928303D12C9A
:1010C0008AE30E948F028C0187E00E948F027C01DC
:1010D00080917B00877F80937B00F0E4F0937C001D
:1010E00080917A00806480937A0080917A0086FDF6
:1010F000FCCF8091780060917900762F682F072EC1
:10110000000C880B990B0E94C90B20E030EC4FE7D4
:1011100054E40E94260B20E030E44CE955E40E94A0
:101120007E0C20E030E040E251E40E94260B609308
:101130000F03709310038093110390931203809117
:101140000D0390910E03892B11F40E948405DD207C
:1011500009F4BCC08EE993E00E94980540E060E08D
:101160008EE993E00E94760564E672E08EE993E0F2
:101170000E94F10341E067E08EE993E00E9476056A
:101180006DE872E08EE993E00E94F10341E067E0D0
:101190008EE993E00E947605D0E0C0E080910D03D7
:1011A00090910E038C179D0744F060EC72E08EE97D
:1011B00093E00E94F1032196F1CFFC01E050FE4F35
:1011C00020812D11D5C0019690930E0380930D03BD
:1011D000049709F07BC061E089E10E94BB0260E0F6
:1011E00088E10E94BB028EE993E00E94980540E0EE
:1011F00060E08EE993E00E94760560E772E08EE998
:1012000093E00E94F10341E064E08EE993E00E94E4
:10121000760580E892E00E94DE0364E670E080E0FC
:1012200090E00E9452038EE993E00E94980585E0C9
:10123000282E312C412C512C40E060E08EE993E0C7
:101240000E9476052AE0B201A1018EE993E00E9496
:1012500092036DE770E080E090E00E94520351E05D
:10126000251A3108410851088FEF2816380648061C
:10127000580611F760E089E10E94BB0240E060E09F
:101280008EE993E00E9476056FE872E08EE993E0C4
:101290000E94F10341E060E08EE993E00E94760550
:1012A00064EA72E08EE993E00E94F10368EC70E07A
:1012B00080E090E00E9452038EE993E00E9498053E
:1012C0000E94840510920E0310920D0320900F03CC
:1012D00030901003409011035090120320E030E052
:1012E00040EF51E4C201B1010E94790C18160CF0D4
:1012F0006EC040E060E086E893E00E94760561ED14
:1013000072E086E893E00E94F10341E060E086E845
:1013100093E00E94760560910F0370911003809115
:1013200011039091120342E00E948F0462EE72E07A
:1013300086E893E00E94F10361E091E0E916F10490
:1013400019F0EF2821F460E087E10E94BB0261E020
:101350000130110519F0012B21F460E086E10E94B3
:10136000BB026114710409F476CD0E94000073CDB4
:101370008EE993E00E94980540E060E08EE993E0FA
:101380000E94760561EB72E08EE993E00E94F10322
:1013900061E088E10E94BB0241E060E08EE993E0F9
:1013A0000E94760562EC72E08EE993E00E94F10300
:1013B00068EC70E080E090E00E9452038EE993E0D8
:1013C0000E94980560E088E10E94BB0279CF20E08E
:1013D00030E040EA51E4C201B1010E94210B40E03B
:1013E00060E087FF07C086E893E00E94760566EE1E
:1013F00072E087CF86E893E00E94760567EF72E09F
:1014000080CF617023CECF92DF92FF920F931F9314
:10141000CF93DF931092190310921D0310921C03B7
:1014200010921E0387E292E09093180380931703B3
:10143000E3E3F3E01082148213821582369683E090
:10144000EF36F807B9F787E092E090937A0380933C
:10145000790384E092E090937C0380937B0384E0A3
:1014600080937D0383E080937E038BE092E09093F2
:101470007803809377038AE090E0909380038093D1
:101480007F0384EF91E09093820380938103109215
:1014900085031092840310927303109274031092C8
:1014A000750310927603109283031092A103109299
:1014B000A0038BE1C82E82E0D82ED0929F03C09269
:1014C0009E0388E28093A203FF24FA94F092A30380
:1014D00089E28093A4030AE20093A5031BE2109320
:1014E000A603DCE2D093A703CDE2C093A803109239
:1014F000A9031092AA031092AB031092AC031092AE
:10150000AD0361E08EE993E00E94A005109289038B
:1015100010928803D0928703C092860386E280935C
:101520008A03F0928B0387E280938C0300938D03F0
:1015300010938E03D0938F03C09390031092910366
:1015400010929203109293031092940310929503B9
:1015500061E086E893E0DF91CF911F910F91FF90BA
:10156000DF90CF900C94A0055058BB27AA270E946B
:10157000CC0A0C943F0C0E94310C38F00E94380CBD
:1015800020F039F49F3F19F426F40C942E0C0EF43D
:10159000E095E7FB0C94280CE92F0E94500C58F3BF
:1015A000BA17620773078407950720F079F4A6F548
:1015B0000C94720C0EF4E0950B2EBA2FA02D0B019B
:1015C000B90190010C01CA01A0011124FF27591B88
:1015D00099F0593F50F4503E68F11A16F040A22F8E
:1015E000232F342F4427585FF3CF469537952795FF
:1015F000A795F0405395C9F77EF41F16BA0B620BFE
:10160000730B840BBAF09150A1F0FF0FBB1F661F44
:10161000771F881FC2F70EC0BA0F621F731F841F87
:1016200048F4879577956795B795F7959E3F08F0AD
:10163000B0CF9395880F08F09927EE0F979587956F
:1016400008950E94040C08F481E008950E943A0B6A
:101650000C943F0C0E94380C58F00E94310C40F062
:1016600029F45F3F29F00C94280C51110C94730C51
:101670000C942E0C0E94500C68F39923B1F355235F
:1016800091F3951B550BBB27AA2762177307840795
:1016900038F09F5F5F4F220F331F441FAA1FA9F32B
:1016A00035D00E2E3AF0E0E832D091505040E69519
:1016B000001CCAF72BD0FE2F29D0660F771F881F7A
:1016C000BB1F261737074807AB07B0E809F0BB0B6D
:1016D000802DBF01FF2793585F4F3AF09E3F510581
:1016E00078F00C94280C0C94730C5F3FE4F3983E54
:1016F000D4F3869577956795B795F7959F5FC9F76A
:10170000880F911D9695879597F90895E1E0660FEA
:10171000771F881FBB1F621773078407BA0720F063
:10172000621B730B840BBA0BEE1F88F7E0950895CC
:101730000E94580C88F09F5798F0B92F9927B751FD
:10174000B0F0E1F0660F771F881F991F1AF0BA9565
:10175000C9F714C0B13091F00E94720CB1E0089545
:101760000C94720C672F782F8827B85F39F0B93F37
:10177000CCF3869577956795B395D9F73EF4909518
:101780008095709561957F4F8F4F9F4F0895E89496
:1017900009C097FB3EF490958095709561957F4FB9
:1017A0008F4F9F4F9923A9F0F92F96E9BB27939567
:1017B000F695879577956795B795F111F8CFFAF477
:1017C000BB0F11F460FF1BC06F5F7F4F8F4F9F4FA8
:1017D00016C0882311F096E911C0772321F09EE806
:1017E000872F762F05C0662371F096E8862F70E06C
:1017F00060E02AF09A95660F771F881FDAF7880F46
:101800009695879597F90895990F0008550FAA0B9B
:10181000E0E8FEEF16161706E807F907C0F0121603
:101820001306E407F50798F0621B730B840B950B06
:1018300039F40A2661F0232B242B252B21F408955B
:101840000A2609F4A140A6958FEF811D811D0895F8
:1018500097F99F6780E870E060E008959FEF80EC63
:10186000089500240A941616170618060906089506
:1018700000240A9412161306140605060895092E6C
:101880000394000C11F4882352F0BB0F40F4BF2BDB
:1018900011F460FF04C06F5F7F4F8F4F9F4F08951B
:1018A00057FD9058440F551F59F05F3F71F0479511
:1018B000880F97FB991F61F09F3F79F087950895F6
:1018C000121613061406551FF2CF4695F1DF08C015
:1018D000161617061806991FF1CF86957105610532
:1018E00008940895E894BB2766277727CB0197F9DA
:1018F00008950E94040C08F48FEF08950E94910C43
:101900000C943F0C0E94310C38F00E94380C20F0EF
:10191000952311F00C94280C0C942E0C11240C948B
:10192000730C0E94500C70F3959FC1F3950F50E01B
:10193000551F629FF001729FBB27F00DB11D639F81
:10194000AA27F00DB11DAA1F649F6627B00DA11D27
:10195000661F829F2227B00DA11D621F739FB00DCD
:10196000A11D621F839FA00D611D221F749F33273D
:10197000A00D611D231F849F600D211D822F762FD6
:101980006A2F11249F5750409AF0F1F088234AF0B3
:10199000EE0FFF1FBB1F661F771F881F915050401F
:1019A000A9F79E3F510580F00C94280C0C94730C01
:1019B0005F3FE4F3983ED4F3869577956795B795A6
:1019C000F795E7959F5FC1F7FE2B880F911D9695C0
:1019D000879597F908950E94040C880B990B089538
:1019E000A1E21A2EAA1BBB1BFD010DC0AA1FBB1F23
:1019F000EE1FFF1FA217B307E407F50720F0A21B95
:101A0000B30BE40BF50B661F771F881F991F1A9401
:101A100069F760957095809590959B01AC01BD012B
:101A2000CF010895EE0FFF1F881F8BBF0790F6911F
:101A3000E02D1994F894FFCF303132331213140E85
:101A40000F10113132333435363738392A3023000C
:101A50000000008904FB01850384030000000029C5
:101A600003E902B8020D0A006E616E00696E66003D
:101A70006F76660020202020534946524559492060
:101A800020202020202020002020202047495249CB
:101A90004E495A20202020202020200020202020D5
:101AA00020205349465245002A2A444F4752552088
:101AB00053494652452A2A00202020202020202059
:101AC000202020202020004B494C49542059454ECD
:101AD0004944454E2020202020202000414B5449DD
:101AE00046204544494C4449002A2A59414E4C4914
:101AF000532053494652452A2A002059656E69648D
:101B0000656E2044656E652000534943414B4C4946
:101B10004B20415254544920200020274300534970
:101B200043414B4C494B20415A414C4449200053BE
:101B30004943414B4C494B204E4F524D414C2000A4
:020000040003F7
:10E000000D9489F10D94B2F10D94B2F10D94B2F129
:10E010000D94B2F10D94B2F10D94B2F10D94B2F1F0
:10E020000D94B2F10D94B2F10D94B2F10D94B2F1E0
:10E030000D94B2F10D94B2F10D94B2F10D94B2F1D0
:10E040000D94B2F10D94B2F10D94B2F10D94B2F1C0
:10E050000D94B2F10D94B2F10D94B2F10D94B2F1B0
:10E060000D94B2F10D94B2F10D94B2F10D94B2F1A0
:10E070000D94B2F10D94B2F10D94B2F10D94B2F190
:10E080000D94B2F10D94B2F10D94B2F10D94B2F180
:10E090000D94B2F10D94B2F10D94B2F10D94B2F170
:10E0A0000D94B2F10D94B2F10D94B2F10D94B2F160
:10E0B0000D94B2F10D94B2F10D94B2F10D94B2F150
:10E0C0000D94B2F10D94B2F10D94B2F10D94B2F140
:10E0D0000D94B2F10D94B2F10D94B2F10D94B2F130
:10E0E0000D94B2F141546D656761323536300041AF
:10E0F000726475696E6F206578706C6F72657220DE
:10E1000073746B3530305632206279204D4C530099
:10E11000426F6F746C6F616465723E004875683F52
:10E1200000436F6D70696C6564206F6E203D200048
:10E130004350552054797065202020203D20005FF9
:10E140005F4156525F415243485F5F3D2000415658
:10E1500052204C696243205665723D20004743437C
:10E160002056657273696F6E203D20004350552024
:10E1700049442020202020203D20004C6F7720663D
:10E18000757365202020203D20004869676820665F
:10E190007573652020203D200045787420667573D6
:10E1A00065202020203D20004C6F636B2066757336
:10E1B000652020203D20004D617220203720323024
:10E1C000313300312E362E3800342E332E350056A2
:10E1D00023202020414444522020206F7020636F70
:10E1E00064652020202020696E73747275637469E1
:10E1F0006F6E2061646472202020496E74657272B3
:10E20000757074006E6F20766563746F7200726A49
:10E210006D702020006A6D70200057686174207056
:10E220006F72743A00506F7274206E6F7420737541
:10E2300070706F72746564004D7573742062652030
:10E2400061206C6574746572002000577269747483
:10E25000696E672045450052656164696E672045B7
:10E26000450045452065727220636E743D00504F35
:10E27000525400303D5A65726F2061646472003FF1
:10E280003D43505520737461747300403D454550C3
:10E29000524F4D207465737400423D426C696E6B41
:10E2A000204C454400453D44756D70204545505215
:10E2B0004F4D00463D44756D7020464C415348001B
:10E2C000483D48656C70004C3D4C69737420492F83
:10E2D0004F20506F72747300513D51756974005234
:10E2E0003D44756D702052414D00563D73686F7707
:10E2F00020696E7465727275707420566563746FF0
:10E30000727300593D506F727420626C696E6B00BD
:10E310002A0011241FBECFEFD1E2DEBFCDBF01E046
:10E320000CBF12E0A0E0B2E0EEE1FDEF03E00BBFB6
:10E3300002C007900D92A030B107D9F712E0A0E01B
:10E34000B2E001C01D92AE30B107E1F70F9460F367
:10E350000D948DFE01E20EBF0FEF0DBF11241FBE05
:10E360000D9460F30D9400F020E030E040ED57E0B4
:10E3700005C0FA013197F1F72F5F3F4F2817390792
:10E38000C0F308959C01260F311DC901A0E0B0E043
:10E390002F5F3F4FABBFFC018791882361F08093D3
:10E3A000C6008091C00086FFFCCF8091C0008064D1
:10E3B0008093C000EACF08958DE08093C6008091DD
:10E3C000C00086FFFCCF8091C00080648093C000B5
:10E3D0008AE08093C6008091C00086FFFCCF8091C8
:10E3E000C00080648093C00008950F94C2F10F9420
:10E3F000DCF10895FC019081992359F09093C600B7
:10E400008091C00086FFFCCF8091C0008064809323
:10E41000C0003196992379F70895282F982F929567
:10E420009F70892F805D8A3308F0895F8093C600D2
:10E430008091C00086FFFCCF8091C00080648093F3
:10E44000C000822F8F70982F905D9A3308F0995FEB
:10E450009093C6008091C00086FFFCCF8091C000E1
:10E4600080648093C00008959C01FB01853691056E
:10E470001CF46330710594F0C90164E670E00F94F8
:10E480002EFE605D7F4F6093C6008091C00086FFC6
:10E49000FCCF8091C00080648093C0002B30310598
:10E4A00014F43297B4F0C90164E670E00F942EFEC4
:10E4B0006AE070E00F942EFE605D7F4F6093C600AF
:10E4C0008091C00086FFFCCF8091C0008064809363
:10E4D000C000C9016AE070E00F942EFEC0968093E0
:10E4E000C6008091C00086FFFCCF8091C000806490
:10E4F0008093C00008951F93182F8EE692EE60E07F
:10E500000F94C2F11093C6008091C00086FFFCCF2B
:10E510008091C00080648093C0000F94DCF11F9153
:10E5200008952F923F924F925F926F927F928F92B7
:10E530009F92AF92BF92CF92DF92EF92FF920F9392
:10E540001F93DF93CF93CDB7DEB762970FB6F894E2
:10E55000DEBF0FBECDBF382E622ECA01DB015C01CB
:10E560006D01772420E2222E2E010894411C511CBB
:10E570008BC081E0A81680E0B80681E0C80680E084
:10E58000D80628F0C601AA27BB270F940DF2BB2797
:10E59000AD2D9C2D8B2D0F940DF28A2D0F940DF225
:10E5A0002092C6008091C00086FFFCCF8091C00001
:10E5B00080648093C0009DE29093C6008091C0006B
:10E5C00086FFFCCF8091C00080648093C0002092C1
:10E5D000C6008091C00086FFFCCF8091C00080649F
:10E5E0008093C00019828601750188249924A1E0D6
:10E5F0003A1651F03A1620F0B2E03B1661F409C029
:10E600000BBFF701779007C0C7010F9477FE782EF4
:10E6100002C0F7017080872D0F940DF22092C60082
:10E620008091C00086FFFCCF8091C0008064809301
:10E63000C000872D8052F401EF70F0708F3520F408
:10E64000E40DF51D708204C0E40DF51D8EE280839B
:10E650000894E11CF11C011D111D0894811C911CE2
:10E6600090E18916910409F0C2CF80E190E0A0E02A
:10E67000B0E0A80EB91ECA1EDB1E198AC2010F9493
:10E68000FAF10F94DCF16A94662009F072CF629679
:10E690000FB6F894DEBF0FBECDBFCF91DF911F91B3
:10E6A0000F91FF90EF90DF90CF90BF90AF909F9031
:10E6B0008F907F906F905F904F903F902F90089534
:10E6C0002F923F924F925F926F927F928F929F9282
:10E6D000AF92BF92CF92DF92EF92FF920F931F9370
:10E6E000DF93CF93CDB7DEB7CD53D1400FB6F894BB
:10E6F000DEBF0FBECDBF01E20EBF0FEF0DBF94B75F
:10E70000F894A89514BE80916000886180936000A1
:10E7100010926000789493FF05C0E0910002F091A0
:10E7200001021995279A2F9A8091C00082608093E8
:10E73000C00080E18093C40088E18093C1000000A4
:10E74000EE24FF24870144E0A42EB12CCC24DD2448
:10E7500024C0C5010197F1F70894E11CF11C011DCB
:10E76000111D21E2E2162EE4F20620E0020720E06D
:10E77000120718F031E0C32ED12CC801B70127ECE5
:10E780003BE140E050E00F9441FE611571058105C9
:10E79000910519F485B1805885B98091C00087FD35
:10E7A00003C0C114D104A9F2A6014F5F5F4FC25E3E
:10E7B000DE4F59834883CE51D140C25EDE4F8881FF
:10E7C0009981CE51D140019711F00D9410FEC05D9A
:10E7D000DE4F19821882C053D14060E0C15DDE4F28
:10E7E0001882CF52D14088249924C35DDE4F19820C
:10E7F0001882CD52D140C05EDE4F188219821A8233
:10E800001B82C052D140CE5CDE4F188219821A8220
:10E810001B82C253D140EE24FF2487010BBFF701B6
:10E8200007911691C45CDE4F19830883CC53D14005
:10E830000D940BFEC25EDE4F28813981CE51D1404E
:10E840002130310509F52091C600C25EDE4F1982E4
:10E850001882CE51D14022C02F5F3F4F4F4F5F4FA4
:10E86000213082E138078AE7480780E0580780F0C6
:10E87000C45CDE4FE881F981CC53D140EF5FFF4F9C
:10E8800019F0EE27FF27099420E030E040E050E047
:10E890008091C00087FFE0CF2091C600C35DDE4FAE
:10E8A00048815981CD52D1404F5F5F4FC35DDE4FEC
:10E8B00059834883CD52D140213209F063C64A3092
:10E8C000510508F05FC60894811C911C53E0851621
:10E8D000910409F059C600E010E018C081E280936D
:10E8E000C6008091C00086FFFCCF8091C00080648C
:10E8F0008093C0002F5F3F4F2931310579F70F9486
:10E90000DCF10F5F1F4F0530110519F020E030E0FA
:10E91000E5CF10920A0210920B0210920C02109294
:10E920000D02109206021092070210920802109235
:10E930000902109202021092030210920402109235
:10E9400005028FEE90EE60E00F94F5F180E191EE1C
:10E9500060E00F94C2F18091C00087FFFCCF9091DE
:10E96000C600903608F09F759032B8F09093C600BC
:10E970008091C00086FFFCCF8091C00080648093AE
:10E98000C000A0E2A093C6008091C00086FFFCCF2B
:10E990008091C00080648093C000983409F4D7C18E
:10E9A0009934B8F4923409F459C1933458F490333B
:10E9B00019F1903308F4E3C59F33A1F1903409F0C5
:10E9C000DEC5BDC0953409F470C1963409F0D7C5D1
:10E9D00098C1923509F42BC2933538F49C3409F46C
:10E9E000F5C1913509F0CBC518C2963509F445C279
:10E9F000993509F0C4C567C483E792EE62E00F94CD
:10EA0000F5F110920602109207021092080210927D
:10EA1000090210920A0210920B0210920C0210923C
:10EA20000D0213C18FE792EE62E00F94F5F18FEEC5
:10EA300090EE60E00F94F5F181E291EE60E00F94CA
:10EA4000C2F187EB91EE60E00F94F5F180E391EE77
:10EA500060E00F94C2F184EE90EE60E00F94F5F167
:10EA60008FE391EE60E00F94C2F186E090E061E008
:10EA700070E00F9434F20F94DCF18DE591EE60E0DC
:10EA80000F94C2F189EC91EE60E00F94F5F18EE401
:10EA900091EE60E00F94C2F183EC91EE60E00F9490
:10EAA000F5F18CE691EE60E00F94C2F18EE10F94E7
:10EAB0000DF288E90F940DF281E00F940DF20F949E
:10EAC000DCF18BE791EE60E00F94C2F119E0E0E039
:10EAD000F0E010935700E4918E2F0F940DF20F94F5
:10EAE000DCF18AE891EE60E00F94C2F1E3E0F0E03F
:10EAF00010935700E4918E2F0F940DF20F94DCF1D8
:10EB000089E991EE60E00F94C2F1E2E0F0E0109349
:10EB10005700E4918E2F0F940DF20F94DCF188EAE8
:10EB200091EE60E00F94C2F1E1E0F0E01093570045
:10EB30001491812F0F940DF20F94DCF107CF8BE825
:10EB400092EE62E00F94F5F18BE492EE60E00F94A8
:10EB5000F5F10F94DCF100E010E019C0C8016F2D51
:10EB60000F947FFEFF2031F489E492EE60E00F9471
:10EB7000C2F10BC0F092C6008091C00086FFFCCFAE
:10EB80008091C00080648093C0000F5F1F4FC80158
:10EB900081519F41A0E0B0E0ABBFFC01F790BAE229
:10EBA000FB1621F0E2E000301E07C1F60F94DCF105
:10EBB0000F94DCF187E592EE60E00F94F5F10F948D
:10EBC000DCF1CC24DD2400E010E01EC0C8010F946D
:10EBD00077FEF82E882331F489E492EE60E00F94FA
:10EBE000C2F10BC08093C6008091C00086FFFCCFAD
:10EBF0008091C00080648093C000FE1419F00894D6
:10EC0000C11CD11C0F5F1F4FC80181519F41A0E063
:10EC1000B0E0ABBFFC01E790FAE2EF1621F022E092
:10EC20000030120799F60F94DCF10F94DCF182E6C4
:10EC300092EE60E00F94C2F1C60161E070E00F94C3
:10EC400034F20F94DCF10F94DCF110920202109276
:10EC50000302109204021092050278CE89E992EE26
:10EC600062E00F94F5F1279A2F9A16C02F9880E052
:10EC700090E0E0EDF7E03197F1F7019684369105E9
:10EC8000C1F72F9A80E090E0E0EDF7E03197F1F7DF
:10EC9000019684369105C1F78091C00087FFE6CFC9
:10ECA0008091C00087FFFCCF64C485EA92EE62E0E9
:10ECB0000F94F5F140910202509103026091040219
:10ECC0007091050281E020E10F9491F2809102029F
:10ECD00090910302A0910402B091050280509F4FD1
:10ECE000AF4FBF4F8093020290930302A0930402A0
:10ECF000B093050280509041A040B04008F426CE69
:10ED0000A4CF83EB92EE62E00F94F5F140910602FE
:10ED100050910702609108027091090280E020E1A1
:10ED20000F9491F28091060290910702A09108023F
:10ED3000B091090280509F4FAF4FBF4F80930602A2
:10ED400090930702A0930802B0930902FFCD80ECD4
:10ED500092EE62E00F94F5F183E792EE60E00F949B
:10ED6000F5F18FE792EE60E00F94F5F18BE892EE0B
:10ED700060E00F94F5F189E992EE60E00F94F5F10F
:10ED800085EA92EE60E00F94F5F183EB92EE60E09D
:10ED90000F94F5F180EC92EE60E00F94F5F187ECC2
:10EDA00092EE60E00F94F5F188ED92EE60E00F9442
:10EDB000F5F18FED92EE60E00F94F5F18AEE92EEB0
:10EDC00060E00F94F5F183E093EEBDCD87EC92EE19
:10EDD00062E00F94F5F181E40F947BF282E40F94EA
:10EDE0007BF283E40F947BF284E40F947BF285E45E
:10EDF0000F947BF286E40F947BF287E40F947BF20E
:10EE000088E40F947BF28AE40F947BF28BE40F94F6
:10EE10007BF28CE40F947BF299CD88ED92EE62E068
:10EE20000F94F5F1772473948824992409C48FED05
:10EE300092EE62E00F94F5F140910A0250910B02BC
:10EE400060910C0270910D0282E020E10F9491F22A
:10EE500080910A0290910B02A0910C02B0910D02D8
:10EE600080509F4FAF4FBF4F80930A0290930B0289
:10EE7000A0930C02B0930D0269CD8AEE92EE62E08F
:10EE80000F94F5F184EE90EE60E00F94F5F18FECC5
:10EE900091EE60E00F94F5F1662477244301CC5D98
:10EEA000DE4F19821882C452D140D401C301B695F5
:10EEB000A79597958795CA5DDE4F88839983AA8326
:10EEC000BB83C652D140CC5DDE4FA881B981C4520C
:10EED000D1401196CC5DDE4FB983A883C452D14096
:10EEE000CD0162E070E00F9434F2B0E2B093C6005E
:10EEF0008091C00086FFFCCF8091C0008064809329
:10EF0000C000EDE2E093C6008091C00086FFFCCF18
:10EF10008091C00080648093C000F0E2F093C6004E
:10EF20008091C00086FFFCCF8091C00080648093F8
:10EF3000C000CA5DDE4FE880F9800A811B81C6529D
:10EF4000D140BB27A12F902F8F2D0F940DF2CA5DBA
:10EF5000DE4F8881C652D1400F940DF2B0E2FB2EF5
:10EF6000F092C6008091C00086FFFCCF8091C00067
:10EF700080648093C0000DE30093C6008091C000C0
:10EF800086FFFCCF8091C00080648093C00010E2B7
:10EF90001093C6008091C00086FFFCCF8091C00016
:10EFA00080648093C0008BBEF3012791C65DDE4F65
:10EFB0002883CA52D140A22EBB24CC24DD2408943D
:10EFC000611C711C811C911C8BBEF3018791282E42
:10EFD0003324442455240894611C711C811C911C09
:10EFE0008BBEF3013791C55DDE4F3883CB52D140E4
:10EFF0000894611C711C811C911C8BBEF30147910C
:10F00000C45DDE4F4883CC52D140ADEFEA2EAFEF66
:10F01000FA2EAFEF0A2FAFEF1A2F6E0C7F1C801E57
:10F02000911E142D032DF22CEE24EA0CFB1C0C1D5A
:10F030001D1D0F940DF220E22093C6008091C000A8
:10F0400086FFFCCF8091C00080648093C000C65DC5
:10F05000DE4F8881CA52D1400F940DF230E23093D6
:10F06000C6008091C00086FFFCCF8091C000806404
:10F070008093C000C45DDE4F8881CC52D1400F9494
:10F080000DF240E24093C6008091C00086FFFCCFA5
:10F090008091C00080648093C000C55DDE4F888190
:10F0A000CB52D1400F940DF250E25093C6008091A4
:10F0B000C00086FFFCCF8091C00080648093C000B8
:10F0C0008FEFE8168FEFF80680E0080780E018075A
:10F0D00031F484E092EE60E00F94C2F1DFC0D80119
:10F0E000C7018070907CA070B0708050904CA040A0
:10F0F000B040D1F52FEF3FE340E050E0E222F322B1
:10F1000004231523CA5DDE4FA880B980CA80DB8046
:10F11000C652D140AE0CBF1CC01ED11EAA0CBB1CD7
:10F12000CC1CDD1C8EE092EE60E00F94C2F1BB2798
:10F13000A12F902F8F2D0F940DF28E2D0F940DF285
:10F1400030E23093C6008091C00086FFFCCF8091F2
:10F15000C00080648093C0004EE34093C60080915D
:10F16000C00086FFFCCF87C08EE09EEFA0E0B0E03D
:10F17000E822F9220A231B239CE0E91694E9F90608
:10F1800090E0090790E0190709F088C0C45DDE4FE0
:10F19000A881CC52D140EA2EFF2400E010E0102FCD
:10F1A0000F2DFE2CEE24C55DDE4FB881CB52D14031
:10F1B000EB0EF11C011D111DD601C501817090706F
:10F1C000A070B070DC0199278827E80EF91E0A1F8D
:10F1D0001B1F20EF30E040E050E0A222B322C42207
:10F1E000D52241E1AA0CBB1CCC1CDD1C4A95D1F7F1
:10F1F000EA0CFB1C0C1D1D1D81E090E0A0E0B0E0BE
:10F20000282239224A225B2235E1220C331C441C7D
:10F21000551C3A95D1F7E20CF31C041D151D57013E
:10F220006801AA0CBB1CCC1CDD1C85E192EE60E0E1
:10F230000F94C2F1C801AA27BB270F940DF2BB2778
:10F24000A12F902F8F2D0F940DF28E2D0F940DF274
:10F2500090E29093C6008091C00086FFFCCF809121
:10F26000C00080648093C000AEE3A093C60080918C
:10F27000C00086FFFCCF8091C00080648093C000F6
:10F28000C601AA27BB270F940DF2BB27AD2D9C2DDD
:10F290008B2D0F940DF28A2D0F940DF20F94DCF14B
:10F2A000CC5DDE4FE881F981C452D140F99709F471
:10F2B0004DCBF4E0EF2EF12C012D112D6E0C7F1CA7
:10F2C000801E911EF2CD83E093EE62E00F94F5F183
:10F2D0008AE192EE60E00F94C2F18091C00087FF56
:10F2E000FCCF1091C6001F751093C6008091C0001E
:10F2F00086FFFCCF8091C00080648093C0000F9493
:10F30000DCF1812F81548A3108F036C1163409F4BA
:10F3100095C0173490F4133409F44EC0143430F40B
:10F320001134F1F0123409F01DC130C0143409F465
:10F3300059C0153409F016C16BC01A3409F4C4C0A1
:10F340001B3438F4173409F48FC0183409F00AC19B
:10F35000A1C01B3409F4D2C01C3409F003C1E8C0B9
:10F360008FEF81B90DC082B1809582B980E090E0C5
:10F37000E0EDF7E03197F1F70196883C9105C1F790
:10F380008091C00087FFEFCF12B8EFC08FEF84B934
:10F390000DC085B1809585B980E090E0E0EDF7E0A3
:10F3A0003197F1F70196883C9105C1F78091C00033
:10F3B00087FFEFCF15B8D9C08FEF87B90DC088B1DF
:10F3C000809588B980E090E0E0EDF7E03197F1F7C3
:10F3D0000196883C9105C1F78091C00087FFEFCF6F
:10F3E00018B8C3C08FEF8AB90DC08BB180958BB9A7
:10F3F00080E090E0E0EDF7E03197F1F70196883C8E
:10F400009105C1F78091C00087FFEFCF1BB8ADC059
:10F410008FEF8DB90DC08EB180958EB980E090E0F0
:10F42000E0EDF7E03197F1F70196883C9105C1F7DF
:10F430008091C00087FFEFCF1EB897C08FEF80BBD1
:10F440000DC081B3809581BB80E090E0E0EDF7E0F6
:10F450003197F1F70196883C9105C1F78091C00082
:10F4600087FFEFCF11BA81C08FEF83BB0DC084B38C
:10F47000809584BB80E090E0E0EDF7E03197F1F714
:10F480000196883C9105C1F78091C00087FFEFCFBE
:10F4900014BA6BC08FEF809301010FC080910201FD
:10F4A00080958093020180E090E0E0EDF7E03197F5
:10F4B000F1F70196883C9105C1F78091C00087FF64
:10F4C000EDCF1092020151C08FEF809304010FC065
:10F4D0008091050180958093050180E090E0E0ED4A
:10F4E000F7E03197F1F70196883C9105C1F78091DB
:10F4F000C00087FFEDCF1092050137C08FEF8093DA
:10F5000007010FC08091080180958093080180E079
:10F5100090E0E0EDF7E03197F1F70196883C910536
:10F52000C1F78091C00087FFEDCF109208011DC088
:10F530008FEF80930A010FC080910B01809580931B
:10F540000B0180E090E0E0EDF7E03197F1F70196F4
:10F55000883C9105C1F78091C00087FFEDCF1092E4
:10F560000B0103C085E292EEEEC98091C00087FFD7
:10F57000FCCF8091C600EAC988E392EEE4C98CE131
:10F5800091EEE1C988249924933011F1943028F444
:10F59000913089F09230B8F408C0953061F195301F
:10F5A000F0F0963009F048C043C02B3109F042C951
:10F5B00091E06BE13FC96227C15DDE4F2883CF52E6
:10F5C000D14092E037C9B22FA0E0622793E032C960
:10F5D000822F90E0A82BB92B622794E02BC92E3004
:10F5E00009F039C3622795E0C05DDE4F19821882A9
:10F5F000C053D1401FC9E1E0F0E0EC0FFD1FC05D3A
:10F60000DE4F08811981C053D140E00FF11F2083E4
:10F610000F5F1F4FC05DDE4F19830883C053D14079
:10F6200062270A171B0709F005C9D80196E002C92D
:10F63000261709F010C303C0973009F0FBC87724E0
:10F640009981933109F412C19431C8F4963009F4C8
:10F65000D8C0973050F4923009F406C1933009F4C1
:10F660006DC0913009F059C253C0913109F477C08F
:10F67000923108F0BBC0903109F04FC2F5C098310B
:10F6800009F487C0993150F4953109F4EFC09531F0
:10F6900008F4C6C1963109F040C2C2C19A3109F4DA
:10F6A0006CC09A3108F491C09B3109F45BC09D3164
:10F6B00009F033C29D81903359F48F81882311F46E
:10F6C0009EE11CC0813011F091E018C098E916C08D
:10F6D000892F807591F0903539F4E0E0F0E089E011
:10F6E0008093570094910AC0983539F4E3E0F0E034
:10F6F00089E080935700949101C090E01A821B82A8
:10F700008D818C831D829E831F8227E030E009C299
:10F710001A8288E08B8381E48C8386E58D8382E581
:10F720008E8389E48F8383E5888780E589878FE5E9
:10F730008A8782E38B872BE030E0F3C18A818139AD
:10F7400041F0823941F0803911F48FE005C080E04A
:10F7500003C082E001C08AE01A828B8344C0772410
:10F76000739482C08D81882311F48EE12CC0813086
:10F7700011F081E028C088E926C01A82E1E0F0E0BB
:10F7800089E08093570084918B831C8224E030E0D1
:10F79000C8C18B81803589F48C81883039F4E2E0EE
:10F7A000F0E089E08093570084910DC0E0E0F0E044
:10F7B00089E080935700849106C0E3E0F0E089E09F
:10F7C0008093570084911A82DFCF8D81836C99E0FA
:10F7D000E1E0F0E0082E90935700E89507B600FCB2
:10F7E000FDCF1A821B8223E030E09BC180EC8A832C
:10F7F000CE5CDE4F188219821A821B82C253D1401E
:10F800008EC18A8190E0A0E0B0E0582F44273327D2
:10F8100022278B8190E0A0E0B0E0DC0199278827C7
:10F82000282B392B4A2B5B2B8D8190E0A0E0B0E098
:10F83000282B392B4A2B5B2B8C8190E0A0E0B0E089
:10F84000BA2FA92F982F8827282B392B4A2B5B2BCF
:10F85000220F331F441F551FC05EDE4F288339839C
:10F860004A835B83C052D1401A8259C13A81C95C34
:10F87000DE4F3883C753D140CA5CDE4F1882C6536F
:10F88000D1408B81C82EDD24CA5CDE4F488159816E
:10F89000C653D140C42AD52A933109F082C0CE5C28
:10F8A000DE4F88819981AA81BB81C253D1408050AB
:10F8B000904CA340B04030F583E0CE5CDE4FE88052
:10F8C000F9800A811B81C253D140F70100935B008C
:10F8D00080935700E89507B600FCFDCFCE5CDE4F65
:10F8E000088119812A813B81C253D14000501F4FAA
:10F8F0002F4F3F4FCE5CDE4F088319832A833B8313
:10F90000C253D140C05EDE4F488159816A817B81FC
:10F91000C052D140DE011B9631E08C9111962C91A2
:10F9200011971296C75CDE4F2883C953D140C85C3B
:10F93000DE4F1882C853D14090E0C85CDE4FE881AA
:10F94000F981C853D1408E2B9F2B0C01FA01609393
:10F950005B0030935700E89511244E5F5F4F6F4F67
:10F960007F4F0EEFE02E0FEFF02ECE0CDF1CC114F8
:10F97000D10499F685E0C05EDE4F088119812A81A5
:10F980003B81C052D140F80120935B008093570027
:10F99000E89507B600FCFDCF81E180935700E8951C
:10F9A00035C0C05EDE4F88819981AA81BB81C0527B
:10F9B000D140B695A795979587957C018601ABE0D8
:10F9C000AA2EB12CAC0EBD1E0BC0D5016D915D01F0
:10F9D000C7010F947FFE0894E11CF11C01501040F8
:10F9E0000115110591F7A60160E070E0440F551F65
:10F9F000661F771FC05EDE4FE880F9800A811B8199
:10FA0000C052D1404E0D5F1D601F711F1A82C05E33
:10FA1000DE4F488359836A837B83C052D1407FC0C5
:10FA2000FA80C55CDE4FF882CB53D140C65CDE4F16
:10FA30001882CA53D1408B81C82EDD24C65CDE4FAC
:10FA400008811981CA53D140C02AD12A1A828981DA
:10FA5000BE016D5F7F4F843121F59601C05EDE4FA0
:10FA6000E880F9800A811B81C052D1400BBFF701A9
:10FA700087919691DB018C9311969C936E5F7F4FDB
:10FA8000D801C7010296A11DB11DC05EDE4F88835B
:10FA90009983AA83BB83C052D14022503040F1F6F3
:10FAA00036C0C05EDE4F288139814A815B81C052F9
:10FAB000D1400894C108D108760100E010E0089414
:10FAC000C11CD11C0894E11CF11C011D111DE20E8A
:10FAD000F31E041F151F21BDBB27A52F942F832FB5
:10FAE00082BD2F5F3F4F4F4F5F4FF89A80B5DB01CC
:10FAF0008D93BD012E153F054007510761F7C05E8C
:10FB0000DE4F288339834A835B83C052D1409601FC
:10FB10002D5F3F4FFB01108204C080EC8A8322E0FE
:10FB200030E08BE18093C6008091C00086FFFCCF5F
:10FB30008091C00080648093C000C15DDE4FF88179
:10FB4000CF52D140F093C6008091C00086FFFCCF19
:10FB50008091C00080648093C000432F3093C60022
:10FB60008091C00086FFFCCF8091C00080648093AC
:10FB7000C000922F2093C6008091C00086FFFCCF6A
:10FB80008091C00080648093C0008EE08093C600A6
:10FB90008091C00086FFFCCF8091C000806480937C
:10FBA000C00065E1C15DDE4FE880CF52D1406E25D7
:10FBB00069276427FE01319610C090819093C6009A
:10FBC0008091C00086FFFCCF31968091C000806498
:10FBD0008093C0006927215030402115310569F715
:10FBE0006093C6008091C00086FFFCCF8091C0006A
:10FBF00080648093C00085B1805885B9772081F4F6
:10FC0000C15DDE4F0881CF52D1400F5FC15DDE4F35
:10FC10000883CF52D14090E0A0E0B0E00D941AF4F8
:10FC200027982F9880E090E020ED37E0F901319798
:10FC3000F1F7019684369105C9F700008091C00064
:10FC40008D7F8093C00081E180935700E895EE2777
:10FC5000FF270994FFCF90E00D941AF497FB092E2B
:10FC600007260AD077FD04D02ED006D000201AF443
:10FC7000709561957F4F0895F6F7909581959F4F08
:10FC80000895A1E21A2EAA1BBB1BFD010DC0AA1FDD
:10FC9000BB1FEE1FFF1FA217B307E407F50720F0F5
:10FCA000A21BB30BE40BF50B661F771F881F991F70
:10FCB0001A9469F760957095809590959B01AC01B9
:10FCC000BD01CF010895AA1BBB1B51E107C0AA1FAC
:10FCD000BB1FA617B70710F0A61BB70B881F991FED
:10FCE0005A95A9F780959095BC01CD010895F99991
:10FCF000FECF92BD81BDF89A992780B50895262F31
:10FD0000F999FECF1FBA92BD81BD20BD0FB6F89400
:0EFD1000FA9AF99A0FBE01960895F894FFCF63
:00000001FF
