:100000000C9435010C9466010C9466010C94660105
:100010000C9466010C9466010C9466010C946601C4
:100020000C9466010C9466010C9466010C946601B4
:100030000C9466010C9466010C9466010C946601A4
:100040000C9466010C9466010C9466010C94660194
:100050000C9466010C9466010C9466010C943706AE
:100060000C9466010C9466010C9466010C94660174
:100070000C9466010C9466010C9466010C94660164
:100080000C9466010C9466010C9466010C94660154
:100090000C9466010C9466010C9466010C94660144
:1000A0000C9466010C9466010C9466010C94660134
:1000B0000C9466010C9466010C9466010C94660124
:1000C0000C9466010C9466010C9466010C94660114
:1000D0000C9466010C9466010C9466010C94660104
:1000E0000C9466010C9481020C9429030C94B802C0
:1000F0000C94E9020C9446020C94FB010C946F02E0
:100100000C9487020C94030A0C946B020C948904DF
:100110000C9485030C9484030C9454020C945002A8
:100120000C9486020C944C020C9461020C947302A1
:100130000C9458020C9465020C945B020C948B0294
:100140000C9479020C947D02000021002400270009
:100150002A002D00300033000101000004010701D6
:100160000A0100002200250028002B002E0031008B
:10017000340002010000050108010B01000020000D
:100180002300260029002C002F003200000100006F
:10019000030106010901050505050705080808080A
:1001A000020202020A0A080804040404010101010F
:1001B000010101010303030303030303040707070A
:1001C0000C0C0C0C0C0C0C0C0202020206060606AF
:1001D000060606060B0B0B0B0B0B0B0B010210207C
:1001E000200808102040102040800201020108046D
:1001F0000201010204081020408080402010080401
:100200000201800402018040201008040201080459
:10021000020101020408102040800102040810209D
:10022000408000000A0B02090C0D0E0807030401B0
:1002300000000000000000000000000000000000BE
:10024000000000000000000000000000000012118B
:10025000100000000000000000000000000000008E
:100260000000000000000000030A11241FBECFEFB1
:10027000D1E2DEBFCDBF00E00CBF13E0A0E0B2E0F2
:10028000E8E3FAE100E00BBF02C007900D92A8304E
:10029000B107D9F723E0A8E0B3E001C01D92A63B67
:1002A000B207E1F711E0C5E3D1E000E006C0219715
:1002B0000109802FFE010E94120DC433D10780E096
:1002C0000807A9F70E9481060C941A0D0C940000EF
:1002D00096E0899FD0011124A95EBC4F90967C9333
:1002E0006E935F9791E091969C939197E091840330
:1002F000F091850390918303992339F0309751F061
:10030000811108C0809133031994309719F05C96DD
:100310008C91FACF0895CF92DF92EF92FF920F93D4
:100320001F9396E0899FF0011124E95EFC4F11A212
:10033000278D30A12130310551F178F0223031057F
:1003400009F451C02330310509F452C01F910F91B7
:10035000FF90EF90DF90CF9008956623B9F361E0AE
:1003600070E00E9468012FB7F89480911303909178
:100370001403A0911503B09116032FBF80936F0350
:1003800090937003A0937103B0937203DFCF9FB774
:10039000F894C0901303D0901403E0901503F090EC
:1003A00016039FBF00916F0310917003209171039A
:1003B00030917203C01AD10AE20AF30A0091810354
:1003C0001091820330E020E00C151D052E053F053D
:1003D00050F462E070E01F910F91FF90EF90DF907A
:1003E000CF900C9468016111B1CF63E070E0F3CF5E
:1003F00070E060E0F0CFAF92BF92CF92DF92EF92C9
:10040000FF920F931F93CF93DF936C017B018B01BE
:10041000040F151FEB015E01AE18BF08C017D1070E
:1004200059F06991D601ED91FC910190F081E02D98
:10043000C6011995892B79F7C501DF91CF911F91DD
:100440000F91FF90EF90DF90CF90BF90AF90089505
:100450008150823108F05AC0E82FF0E08827EC5C28
:10046000FD4F8F4F0C94120D5402580246024C025D
:10047000500286025B02610265026B026F02730228
:1004800079027D028602810287028B0280918000C0
:100490008F77809380000895809180008F7DF9CFC1
:1004A00080918000877FF5CF84B58F7784BD0895D4
:1004B00084B58F7DFBCF8091B0008F778093B000A3
:1004C00008958091B0008F7DF9CF809190008F7753
:1004D000809390000895809190008F7DF9CF809156
:1004E0009000877FF5CF8091A0008F778093A00048
:1004F00008958091A0008F7DF9CF8091A000877F23
:10050000F5CF809120018F7780932001089580910D
:1005100020018F7DF9CF80912001877FF5CFCF9388
:10052000DF93282F30E0F901EE5DFD4F8491F90152
:10053000E452FE4FD491F901EA56FE4FC491CC2308
:10054000A1F081110E942802EC2FF0E0EE0FFF1FB6
:10055000E458FE4FA591B491EC91ED2381E090E039
:1005600009F480E0DF91CF91089580E090E0FACF28
:10057000862F0C948F021F93CF93DF93282F30E0A8
:10058000F901EE5DFD4F8491F901E452FE4FD491E3
:10059000F901EA56FE4FC491CC23A9F0162F811120
:1005A0000E942802EC2FF0E0EE0FFF1FEE59FE4FE5
:1005B000A591B4918FB7F894EC91111108C0D09522
:1005C000DE23DC938FBFDF91CF911F910895DE2B47
:1005D000F8CF862F642F0C94BB02CF93DF9390E06B
:1005E000FC01E452FE4F24918A569E4FFC018491F7
:1005F0008823C9F090E0880F991FFC01E85BFE4F4B
:10060000A591B491FC01EE59FE4FC591D4916111B1
:100610000DC09FB7F8948C91209582238C9388818C
:10062000282328839FBFDF91CF910895623051F432
:100630009FB7F8943C91822F809583238C93E88117
:100640002E2BEFCF8FB7F894EC912E2B2C938FBFDE
:10065000EACF862F642F0C94ED023FB7F894809177
:10066000090390910A03A0910B03B0910C0326B5E6
:10067000A89B05C02F3F19F00196A11DB11D3FBFDA
:10068000BA2FA92F982F8827BC01CD01620F711DA9
:10069000811D911D42E0660F771F881F991F4A95A3
:1006A000D1F708958F929F92AF92BF92CF92DF922F
:1006B000EF92FF924B015C010E942D036B017C01C4
:1006C0000E942D036C197D098E099F09683E7340B5
:1006D00081059105A8F321E0821A9108A108B108CB
:1006E00088EEC80E83E0D81EE11CF11C8114910431
:1006F000A104B10429F7FF90EF90DF90CF90BF9055
:10070000AF909F908F900895089590E080E00895B5
:10071000FB0101900020E9F73197AF01461B570B11
:100720000C94FB018F929F92AF92BF92EF92FF9237
:100730000F931F93CF93DF93CDB7DEB7A1970FB67B
:10074000F894DEBF0FBECDBF7C01FA01CB0119A228
:10075000223008F42AE08E010F5D1F4F822E912C6B
:10076000B12CA12CBF01A50194010E94F00CF9014C
:10077000CA016A300CF5605DD8016E938D01232BA0
:10078000242B252B79F790E080E0109721F0BD0114
:10079000C7010E948803A1960FB6F894DEBF0FBE72
:1007A000CDBFDF91CF911F910F91FF90EF90BF9040
:1007B000AF909F908F900895695CDECFCF93DF93C9
:1007C000BC018EE993E00E948803EC016DE272E0C7
:1007D0008EE993E00E9488038C0F9D1FDF91CF91DB
:1007E00008950C948803CF93DF93EC0160E08E8131
:1007F0000E94BB0261E08E810E94BB0260E08E819C
:100800000E94BB028BE891E00197F1F7DF91CF9155
:100810000895CF92DF92EF92FF920F931F93CF93A1
:10082000DF936C017C0187E0E80EF11CD0E0C0E0B2
:10083000062F10E0B8010C2E02C0759567950A943A
:10084000E2F76170F70181917F010E94BB0221965E
:10085000C430D10579F7C601DF91CF911F910F9177
:10086000FF90EF90DF90CF900C94F303CF92DF9244
:10087000EF92FF920F931F93CF93DF93EC01F62E2D
:10088000642F8C810E94BB028D818F3F19F060E044
:100890000E94BB020F2D10E08F8584FF25C06E01E2
:1008A00087E0C80ED11CF12CE12CB8010E2C02C03F
:1008B000759567950A94E2F76170F60181916F0171
:1008C0000E94BB02FFEFEF1AFF0A88E0E816F1046E
:1008D00061F7CE01DF91CF911F910F91FF90EF90C3
:1008E000DF90CF900C94F303B80184E07595679581
:1008F0008A95E1F7CE010E9409046F2DCE01DF91A8
:10090000CF911F910F91FF90EF90DF90CF900C94BB
:10091000090441E00E94360481E090E008954F927E
:100920005F926F927F928F929F92AF92BF92CF927F
:10093000DF92EF92FF920F931F93CF936B017C0195
:10094000742EAC019B010E94EB0C60E372E08111FC
:1009500026C046015701E894B7F82FEF3FEF4FE765
:100960005FE7C501B4010E94EB0C81110CC02FEFB1
:100970003FEF4FE75FE7C501B4010E94210B64E33D
:1009800072E0181664F02FEF3FEF4FE75FE4C70106
:10099000B6010E94790C1816ACF468E372E086E8A0
:1009A00093E0CF911F910F91FF90EF90DF90CF9048
:1009B000BF90AF909F908F907F906F905F904F907F
:1009C0000C9488032FEF3FEF4FE75FECC701B601B0
:1009D0000E94210B87FDE1CF20E030E0A901C70193
:1009E000B6010E94210B10E000E087FF0CC041E03F
:1009F0006DE286E893E00E943604F7FAF094F7F887
:100A0000F09401E010E0C0E060E070E080E09FE37F
:100A10007C1641F020E030E040E251E40E94260BD9
:100A2000CF5FF6CFA70196010E94B50A4B015C018A
:100A30000E94980B2B013C012AE0BC01A20186E830
:100A400093E00E949203080F191FCC23D9F1C30130
:100A5000B2010E94C70B9B01AC01C501B4010E9409
:100A6000B40A4B015C0141E06EE286E893E00E942B
:100A700036040F5F1F4FC15028F120E030E040E204
:100A800051E4C501B4010E947E0C2B013C010E947F
:100A9000980B4B01B12CA12C2AE0B501A40186E8EA
:100AA00093E00E949203080F191FC501B4010E9430
:100AB000C70B9B01AC01C301B2010E94B40A4B01F8
:100AC0005C01D9CFC801CF911F910F91FF90EF909A
:100AD000DF90CF90BF90AF909F908F907F906F905E
:100AE0005F904F90089540E00C943604FC012389F8
:100AF000421710F04FEF420FFC01E40FF11D248963
:100B0000620F60680C94730540E060E08EE993E04A
:100B10000E9476058CE392E00E94DE0341E060E0F3
:100B20008EE993E00E94760580E592E00C94DE0366
:100B300061E00E9473058BE39FE10197F1F708954F
:100B40000F931F93CF93DF93EC01623019F48F85DD
:100B500088608F876B8B1C8A80E48D8B80E18E8B05
:100B600080E58F8B61E08C810E94ED028D818F3F4B
:100B700019F061E00E94ED0261E08E810E94ED02B9
:100B80008E0198012C1B3D0B8F8584FD0DC084E0E8
:100B900090E00F5F1F4F281739074CF461E0F80110
:100BA00086810E94ED02EDCF88E090E0F2CF8BE3EA
:100BB0009DE00197F1F760E08C810E94BB0260E04C
:100BC0008E810E94BB028D818F3F19F060E00E94F0
:100BD000BB026F8564FD34C063E0CE010E9409044E
:100BE0000BE416E4C8010197F1F763E0CE010E941F
:100BF0000904C8010197F1F763E0CE010E940904DE
:100C000083E592E00197F1F762E0CE010E940904CA
:100C10006F856062CE010E94730584E0888B6CE072
:100C2000CE010E947305CE010E94980582E0898B57
:100C300066E0CE01DF91CF911F910F910C94730567
:100C40006062CE010E9473058BE496E40197F1F790
:100C50006F856062CE010E94730583E592E0019783
:100C6000F1F76F856062CE010E947305D1CF1F92AC
:100C70000F920FB60F9211242F933F938F939F9350
:100C8000AF93BF938091130390911403A091150328
:100C9000B09116033091080323E0230F2D3758F548
:100CA0000196A11DB11D2093080380931303909317
:100CB0001403A0931503B093160380910903909138
:100CC0000A03A0910B03B0910C030196A11DB11D65
:100CD0008093090390930A03A0930B03B0930C0332
:100CE000BF91AF919F918F913F912F910F900FBE28
:100CF0000F901F90189526E8230F0296A11DB11D95
:100D0000D2CF789484B5826084BD84B5816084BD7F
:100D100085B5826085BD85B5816085BD80916E0099
:100D2000816080936E0010928100809181008260CA
:100D30008093810080918100816080938100809107
:100D400080008160809380008091B10084608093F6
:100D5000B1008091B00081608093B00080919100DB
:100D600082608093910080919100816080939100D6
:100D7000809190008160809390008091A1008260BA
:100D80008093A1008091A10081608093A100809157
:100D9000A00081608093A0008091210182608093F7
:100DA00021018091210181608093210180912001A6
:100DB00081608093200180917A00846080937A0022
:100DC00080917A00826080937A0080917A008160BD
:100DD00080937A0080917A00806880937A001092E4
:100DE000C10062E08EE993E00E94A00562E086E81F
:100DF00093E00E94A00562E08AE30E94ED0262E0B7
:100E000087E00E94ED0260E086E30E94ED0261E06F
:100E100088E10E94ED0261E089E10E94ED0261E05B
:100E200087E10E94ED0261E086E10E94ED020E94EE
:100E300084056CE271E080E090E00E9452038EE94C
:100E400093E00E949805812C912C5401839440E0FA
:100E5000642E40E0742E51E0509383038FB7F894D2
:100E60004091130350911403609115037091160380
:100E70008FBF8091730390917403A0917503B0911B
:100E80007603481B590B6A0B7B0B80917F03909173
:100E90008003B0E0A0E084179507A607B70708F025
:100EA0000CC1C0E080917D03C81760F4E091790324
:100EB000F0917A03EC0FF11D62E080810E94ED0257
:100EC000CF5FF0CF512C80917E03581608F05FC0A1
:100ED000052D10E0E0917B03F0917C03E00FF11F02
:100EE00061E080810E94ED02E0917B03F0917C0340
:100EF000E00FF11F60E080810E94BB02D501C401B8
:100F0000052C04C0880F991FAA1FBB1F0A94D2F793
:100F10006C017C01E094F094412C80917D03481693
:100F2000F8F4C42DD0E0E0917903F0917A03EC0F4E
:100F3000FD1F80810E948F022496CC0FDD1FC95EA9
:100F4000DC4F892B41F4888199818C299D299983D3
:100F500088834394E2CF888199818E219F21F7CFA6
:100F6000E0917B03F0917C03E00FF11F61E0808151
:100F70000E94BB0280917B0390917C03080F191F94
:100F800060E0F80180810E94ED0253949CCF07E15C
:100F900013E0E8018F8D98A1892B31F41C8E8FEF1F
:100FA0009FEF9E8F8D8F19A2269693E0C335D907A8
:100FB00089F7F12C80917D03F81608F053C0E12CDD
:100FC000CF2CD12CCC0CDD1CF601E15EFC4F6F0167
:100FD00020917E03E21608F043C0F6016081718122
:100FE0000E2C02C0769567950A94E2F7F29E900166
:100FF00011242E0D311DE7E1F3E080E0458D568D83
:101000002417350709F4FDC18F5F36968A30B1F792
:1010100060FF24C0E7E1F3E090E080E0448D4111FF
:1010200018C0E0917703F0917803E20FF31F40813D
:1010300056E0589FF001599FF00D1124E95EFC4FD6
:10104000448F368F258F10A2178E61E00E948B018E
:1010500005C0019636968A30910501F7E394B8CF22
:10106000F394A8CF80E0F80191A19111892F0A5F34
:101070001F4FC017D107B9F79FB7F89440911303DA
:101080005091140360911503709116039FBF409314
:1010900073035093740360937503709376038823EE
:1010A00061F080913803882341F08091360390915C
:1010B0003703D0903303019719F010928303D12C9A
:1010C0008AE30E948F028C0187E00E948F027C01DC
:1010D00080917B00877F80937B00F0E4F0937C001D
:1010E00080917A00806480937A0080917A0086FDF6
:1010F000FCCF8091780060917900762F682F072EC1
:10110000000C880B990B0E94C90B20E030EC4FE7D4
:1011100054E40E94260B20E030E44CE955E40E94A0
:101120007E0C20E030E040E251E40E94260B609308
:101130000F03709310038093110390931203809117
:101140000D0390910E03892B11F40E948405DD207C
:1011500009F4BCC08EE993E00E94980540E060E08D
:101160008EE993E00E94760564E672E08EE993E0F2
:101170000E94F10341E067E08EE993E00E9476056A
:101180006DE872E08EE993E00E94F10341E067E0D0
:101190008EE993E00E947605D0E0C0E080910D03D7
:1011A00090910E038C179D0744F060EC72E08EE97D
:1011B00093E00E94F1032196F1CFFC01E050FE4F35
:1011C00020812D11D5C0019690930E0380930D03BD
:1011D000049709F07BC061E089E10E94BB0260E0F6
:1011E00088E10E94BB028EE993E00E94980540E0EE
:1011F00060E08EE993E00E94760560E772E08EE998
:1012000093E00E94F10341E064E08EE993E00E94E4
:10121000760580E892E00E94DE0364E670E080E0FC
:1012200090E00E9452038EE993E00E94980585E0C9
:10123000282E312C412C512C40E060E08EE993E0C7
:101240000E9476052AE0B201A1018EE993E00E9496
:1012500092036DE770E080E090E00E94520351E05D
:10126000251A3108410851088FEF2816380648061C
:10127000580611F760E089E10E94BB0240E060E09F
:101280008EE993E00E9476056FE872E08EE993E0C4
:101290000E94F10341E060E08EE993E00E94760550
:1012A00064EA72E08EE993E00E94F10368EC70E07A
:1012B00080E090E00E9452038EE993E00E9498053E
:1012C0000E94840510920E0310920D0320900F03CC
:1012D00030901003409011035090120320E030E052
:1012E00040EF51E4C201B1010E94790C18160CF0D4
:1012F0006EC040E060E086E893E00E94760561ED14
:1013000072E086E893E00E94F10341E060E086E845
:1013100093E00E94760560910F0370911003809115
:1013200011039091120342E00E948F0462EE72E07A
:1013300086E893E00E94F10361E091E0E916F10490
:1013400019F0EF2821F460E087E10E94BB0261E020
:101350000130110519F0012B21F460E086E10E94B3
:10136000BB026114710409F476CD0E94000073CDB4
:101370008EE993E00E94980540E060E08EE993E0FA
:101380000E94760561EB72E08EE993E00E94F10322
:1013900061E088E10E94BB0241E060E08EE993E0F9
:1013A0000E94760562EC72E08EE993E00E94F10300
:1013B00068EC70E080E090E00E9452038EE993E0D8
:1013C0000E94980560E088E10E94BB0279CF20E08E
:1013D00030E040EA51E4C201B1010E94210B40E03B
:1013E00060E087FF07C086E893E00E94760566EE1E
:1013F00072E087CF86E893E00E94760567EF72E09F
:1014000080CF617023CECF92DF92FF920F931F9314
:10141000CF93DF931092190310921D0310921C03B7
:1014200010921E0387E292E09093180380931703B3
:10143000E3E3F3E01082148213821582369683E090
:10144000EF36F807B9F787E092E090937A0380933C
:10145000790384E092E090937C0380937B0384E0A3
:1014600080937D0383E080937E038BE092E09093F2
:101470007803809377038AE090E0909380038093D1
:101480007F0384EF91E09093820380938103109215
:1014900085031092840310927303109274031092C8
:1014A000750310927603109283031092A103109299
:1014B000A0038BE1C82E82E0D82ED0929F03C09269
:1014C0009E0388E28093A203FF24FA94F092A30380
:1014D00089E28093A4030AE20093A5031BE2109320
:1014E000A603DCE2D093A703CDE2C093A803109239
:1014F000A9031092AA031092AB031092AC031092AE
:10150000AD0361E08EE993E00E94A005109289038B
:1015100010928803D0928703C092860386E280935C
:101520008A03F0928B0387E280938C0300938D03F0
:1015300010938E03D0938F03C09390031092910366
:1015400010929203109293031092940310929503B9
:1015500061E086E893E0DF91CF911F910F91FF90BA
:10156000DF90CF900C94A0055058BB27AA270E946B
:10157000CC0A0C943F0C0E94310C38F00E94380CBD
:1015800020F039F49F3F19F426F40C942E0C0EF43D
:10159000E095E7FB0C94280CE92F0E94500C58F3BF
:1015A000BA17620773078407950720F079F4A6F548
:1015B0000C94720C0EF4E0950B2EBA2FA02D0B019B
:1015C000B90190010C01CA01A0011124FF27591B88
:1015D00099F0593F50F4503E68F11A16F040A22F8E
:1015E000232F342F4427585FF3CF469537952795FF
:1015F000A795F0405395C9F77EF41F16BA0B620BFE
:10160000730B840BBAF09150A1F0FF0FBB1F661F44
:10161000771F881FC2F70EC0BA0F621F731F841F87
:1016200048F4879577956795B795F7959E3F08F0AD
:10163000B0CF9395880F08F09927EE0F979587956F
:1016400008950E94040C08F481E008950E943A0B6A
:101650000C943F0C0E94380C58F00E94310C40F062
:1016600029F45F3F29F00C94280C51110C94730C51
:101670000C942E0C0E94500C68F39923B1F355235F
:1016800091F3951B550BBB27AA2762177307840795
:1016900038F09F5F5F4F220F331F441FAA1FA9F32B
:1016A00035D00E2E3AF0E0E832D091505040E69519
:1016B000001CCAF72BD0FE2F29D0660F771F881F7A
:1016C000BB1F261737074807AB07B0E809F0BB0B6D
:1016D000802DBF01FF2793585F4F3AF09E3F510581
:1016E00078F00C94280C0C94730C5F3FE4F3983E54
:1016F000D4F3869577956795B795F7959F5FC9F76A
:10170000880F911D9695879597F90895E1E0660FEA
:10171000771F881FBB1F621773078407BA0720F063
:10172000621B730B840BBA0BEE1F88F7E0950895CC
:101730000E94580C88F09F5798F0B92F9927B751FD
:10174000B0F0E1F0660F771F881F991F1AF0BA9565
:10175000C9F714C0B13091F00E94720CB1E0089545
:101760000C94720C672F782F8827B85F39F0B93F37
:10177000CCF3869577956795B395D9F73EF4909518
:101780008095709561957F4F8F4F9F4F0895E89496
:1017900009C097FB3EF490958095709561957F4FB9
:1017A0008F4F9F4F9923A9F0F92F96E9BB27939567
:1017B000F695879577956795B795F111F8CFFAF477
:1017C000BB0F11F460FF1BC06F5F7F4F8F4F9F4FA8
:1017D00016C0882311F096E911C0772321F09EE806
:1017E000872F762F05C0662371F096E8862F70E06C
:1017F00060E02AF09A95660F771F881FDAF7880F46
:101800009695879597F90895990F0008550FAA0B9B
:10181000E0E8FEEF16161706E807F907C0F0121603
:101820001306E407F50798F0621B730B840B950B06
:1018300039F40A2661F0232B242B252B21F408955B
:101840000A2609F4A140A6958FEF811D811D0895F8
:1018500097F99F6780E870E060E008959FEF80EC63
:10186000089500240A941616170618060906089506
:1018700000240A9412161306140605060895092E6C
:101880000394000C11F4882352F0BB0F40F4BF2BDB
:1018900011F460FF04C06F5F7F4F8F4F9F4F08951B
:1018A00057FD9058440F551F59F05F3F71F0479511
:1018B000880F97FB991F61F09F3F79F087950895F6
:1018C000121613061406551FF2CF4695F1DF08C015
:1018D000161617061806991FF1CF86957105610532
:1018E00008940895E894BB2766277727CB0197F9DA
:1018F00008950E94040C08F48FEF08950E94910C43
:101900000C943F0C0E94310C38F00E94380C20F0EF
:10191000952311F00C94280C0C942E0C11240C948B
:10192000730C0E94500C70F3959FC1F3950F50E01B
:10193000551F629FF001729FBB27F00DB11D639F81
:10194000AA27F00DB11DAA1F649F6627B00DA11D27
:10195000661F829F2227B00DA11D621F739FB00DCD
:10196000A11D621F839FA00D611D221F749F33273D
:10197000A00D611D231F849F600D211D822F762FD6
:101980006A2F11249F5750409AF0F1F088234AF0B3
:10199000EE0FFF1FBB1F661F771F881F915050401F
:1019A000A9F79E3F510580F00C94280C0C94730C01
:1019B0005F3FE4F3983ED4F3869577956795B795A6
:1019C000F795E7959F5FC1F7FE2B880F911D9695C0
:1019D000879597F908950E94040C880B990B089538
:1019E000A1E21A2EAA1BBB1BFD010DC0AA1FBB1F23
:1019F000EE1FFF1FA217B307E407F50720F0A21B95
:101A0000B30BE40BF50B661F771F881F991F1A9401
:101A100069F760957095809590959B01AC01BD012B
:101A2000CF010895EE0FFF1F881F8BBF0790F6911F
:081A3000E02D1994F894FFCF9A
:101A3800303132331213140E0F1011313233343562
:101A4800363738392A3023000000008904FB018525
:101A5800038403000000002903E902B8020D0A000C
:101A68006E616E00696E66006F7666002020202029
:101A78005349465245594920202020202020200043
:101A880020202020474952494E495A202020202012
:101A980020202000202020202020534946524500A5
:101AA8002A2A444F4752552053494652452A2A006C
:101AB8002020202020202020202020202020004B13
:101AC800494C49542059454E4944454E2020202030
:101AD80020202000414B544946204544494C444964
:101AE800002A2A59414E4C49532053494652452A07
:101AF8002A002059656E6964656E2044656E65200C
:101B080000534943414B4C494B20415254544920BE
:101B1800200020274300534943414B4C494B204167
:101B28005A414C44492000534943414B4C494B20AE
:081B38004E4F524D414C2000BC
:00000001FF
